{
  "abi": [
    {
      "inputs": [],
      "stateMutability": "payable",
      "type": "constructor"
    },
    {
      "anonymous": false,
      "inputs": [
        {
          "indexed": false,
          "internalType": "string",
          "name": "name",
          "type": "string"
        },
        {
          "indexed": false,
          "internalType": "string",
          "name": "slogan",
          "type": "string"
        }
      ],
      "name": "CandidateAdded",
      "type": "event"
    },
    {
      "anonymous": false,
      "inputs": [
        {
          "indexed": true,
          "internalType": "address",
          "name": "voterAddress",
          "type": "address"
        },
        {
          "indexed": false,
          "internalType": "string",
          "name": "name",
          "type": "string"
        }
      ],
      "name": "VoterRegistered",
      "type": "event"
    },
    {
      "inputs": [
        {
          "internalType": "string",
          "name": "_name",
          "type": "string"
        },
        {
          "internalType": "string",
          "name": "_slogan",
          "type": "string"
        }
      ],
      "name": "addCandidate",
      "outputs": [],
      "stateMutability": "nonpayable",
      "type": "function"
    },
    {
      "inputs": [],
      "name": "admin",
      "outputs": [
        {
          "internalType": "address",
          "name": "",
          "type": "address"
        }
      ],
      "stateMutability": "view",
      "type": "function"
    },
    {
      "inputs": [],
      "name": "candidateCount",
      "outputs": [
        {
          "internalType": "uint256",
          "name": "",
          "type": "uint256"
        }
      ],
      "stateMutability": "view",
      "type": "function"
    },
    {
      "inputs": [
        {
          "internalType": "uint256",
          "name": "",
          "type": "uint256"
        }
      ],
      "name": "candidateDetails",
      "outputs": [
        {
          "internalType": "uint256",
          "name": "candidateId",
          "type": "uint256"
        },
        {
          "internalType": "string",
          "name": "name",
          "type": "string"
        },
        {
          "internalType": "string",
          "name": "slogan",
          "type": "string"
        },
        {
          "internalType": "uint256",
          "name": "voteCount",
          "type": "uint256"
        }
      ],
      "stateMutability": "view",
      "type": "function"
    },
    {
      "inputs": [],
      "name": "electionDetails",
      "outputs": [
        {
          "internalType": "string",
          "name": "adminName",
          "type": "string"
        },
        {
          "internalType": "string",
          "name": "adminEmail",
          "type": "string"
        },
        {
          "internalType": "string",
          "name": "adminTitle",
          "type": "string"
        },
        {
          "internalType": "string",
          "name": "electionTitle",
          "type": "string"
        },
        {
          "internalType": "string",
          "name": "organizationTitle",
          "type": "string"
        }
      ],
      "stateMutability": "view",
      "type": "function"
    },
    {
      "inputs": [],
      "name": "endElection",
      "outputs": [],
      "stateMutability": "nonpayable",
      "type": "function"
    },
    {
      "inputs": [],
      "name": "getAdmin",
      "outputs": [
        {
          "internalType": "address",
          "name": "",
          "type": "address"
        }
      ],
      "stateMutability": "view",
      "type": "function"
    },
    {
      "inputs": [],
      "name": "getElectionDetails",
      "outputs": [
        {
          "internalType": "string",
          "name": "adminName",
          "type": "string"
        },
        {
          "internalType": "string",
          "name": "adminEmail",
          "type": "string"
        },
        {
          "internalType": "string",
          "name": "adminTitle",
          "type": "string"
        },
        {
          "internalType": "string",
          "name": "electionTitle",
          "type": "string"
        },
        {
          "internalType": "string",
          "name": "organizationTitle",
          "type": "string"
        }
      ],
      "stateMutability": "view",
      "type": "function"
    },
    {
      "inputs": [],
      "name": "getEnd",
      "outputs": [
        {
          "internalType": "bool",
          "name": "",
          "type": "bool"
        }
      ],
      "stateMutability": "view",
      "type": "function"
    },
    {
      "inputs": [],
      "name": "getStart",
      "outputs": [
        {
          "internalType": "bool",
          "name": "",
          "type": "bool"
        }
      ],
      "stateMutability": "view",
      "type": "function"
    },
    {
      "inputs": [],
      "name": "getTotalCandidate",
      "outputs": [
        {
          "internalType": "uint256",
          "name": "",
          "type": "uint256"
        }
      ],
      "stateMutability": "view",
      "type": "function"
    },
    {
      "inputs": [],
      "name": "getTotalVoter",
      "outputs": [
        {
          "internalType": "uint256",
          "name": "",
          "type": "uint256"
        }
      ],
      "stateMutability": "view",
      "type": "function"
    },
    {
      "inputs": [
        {
          "internalType": "string",
          "name": "_name",
          "type": "string"
        }
      ],
      "name": "registerAsVoter",
      "outputs": [],
      "stateMutability": "nonpayable",
      "type": "function"
    },
    {
      "inputs": [
        {
          "internalType": "string",
          "name": "_adminName",
          "type": "string"
        },
        {
          "internalType": "string",
          "name": "_adminEmail",
          "type": "string"
        },
        {
          "internalType": "string",
          "name": "_adminTitle",
          "type": "string"
        },
        {
          "internalType": "string",
          "name": "_electionTitle",
          "type": "string"
        },
        {
          "internalType": "string",
          "name": "_organisationTitle",
          "type": "string"
        }
      ],
      "name": "setElectionDetails",
      "outputs": [],
      "stateMutability": "nonpayable",
      "type": "function"
    },
    {
      "inputs": [
        {
          "internalType": "bool",
          "name": "_verifiedStatus",
          "type": "bool"
        },
        {
          "internalType": "address",
          "name": "voterAddress",
          "type": "address"
        }
      ],
      "name": "verifyVoter",
      "outputs": [],
      "stateMutability": "nonpayable",
      "type": "function"
    },
    {
      "inputs": [
        {
          "internalType": "uint256",
          "name": "candidateId",
          "type": "uint256"
        }
      ],
      "name": "vote",
      "outputs": [],
      "stateMutability": "nonpayable",
      "type": "function"
    },
    {
      "inputs": [],
      "name": "voterCount",
      "outputs": [
        {
          "internalType": "uint256",
          "name": "",
          "type": "uint256"
        }
      ],
      "stateMutability": "view",
      "type": "function"
    },
    {
      "inputs": [
        {
          "internalType": "address",
          "name": "",
          "type": "address"
        }
      ],
      "name": "voterDetails",
      "outputs": [
        {
          "internalType": "address",
          "name": "voterAddress",
          "type": "address"
        },
        {
          "internalType": "string",
          "name": "name",
          "type": "string"
        },
        {
          "internalType": "bool",
          "name": "isVerified",
          "type": "bool"
        },
        {
          "internalType": "bool",
          "name": "hasVoted",
          "type": "bool"
        },
        {
          "internalType": "bool",
          "name": "isRegistered",
          "type": "bool"
        }
      ],
      "stateMutability": "view",
      "type": "function"
    },
    {
      "inputs": [
        {
          "internalType": "uint256",
          "name": "",
          "type": "uint256"
        }
      ],
      "name": "voters",
      "outputs": [
        {
          "internalType": "address",
          "name": "",
          "type": "address"
        }
      ],
      "stateMutability": "view",
      "type": "function"
    }
  ],
  "bytecode": {
    "object": "0x6080604052600080546001600160a01b0319163317815560018190556002556003805461ffff19169055611837806100386000396000f3fe608060405234801561001057600080fd5b50600436106101215760003560e01c80636247e532116100ad578063a9a981a311610071578063a9a981a314610258578063c5292c6714610261578063da58c7d91461026c578063ed836bc31461027f578063f851a4401461028757600080fd5b80636247e532146101d357806364d198a1146101f65780636d2f6966146101fe5780636e9960c3146102175780639f05a36d1461023c57600080fd5b806342169e48116100f457806342169e48146101785780634a1abf0614610181578063506b8e0a146101945780635938750d146101a757806359f78468146101cb57600080fd5b80630121b93f146101265780630b93400e1461013b578063253e74e21461015257806326541b5614610165575b600080fd5b6101396101343660046111ad565b61029a565b005b6002545b6040519081526020015b60405180910390f35b61013961016036600461120f565b61044f565b610139610173366004611300565b61062a565b61013f60025481565b61013961018f366004611382565b61078a565b6101396101a236600461144f565b610937565b6101ba6101b5366004611489565b61098c565b6040516101499594939291906114f1565b610139610a57565b6101e66101e13660046111ad565b610a92565b6040516101499493929190611534565b60015461013f565b610206610bcb565b604051610149959493929190611571565b6000546001600160a01b03165b6040516001600160a01b039091168152602001610149565b600354610100900460ff165b6040519015158152602001610149565b61013f60015481565b60035460ff16610248565b61022461027a3660046111ad565b610e95565b610206610ebf565b600054610224906001600160a01b031681565b336000908152600b6020526040902060020154610100900460ff16156103005760405162461bcd60e51b8152602060048201526016602482015275165bdd481a185d9948185b1c9958591e481d9bdd195960521b60448201526064015b60405180910390fd5b336000908152600b602052604090206002015460ff1615156001146103675760405162461bcd60e51b815260206004820152601c60248201527f596f7520617265206e6f7420766572696669656420746f20766f74650000000060448201526064016102f7565b60035460ff1615156001146103be5760405162461bcd60e51b815260206004820152601860248201527f456c656374696f6e20686173206e6f742073746172746564000000000000000060448201526064016102f7565b600354610100900460ff161561040b5760405162461bcd60e51b8152602060048201526012602482015271115b1958dd1a5bdb881a185cc8195b99195960721b60448201526064016102f7565b6000818152600460205260408120600301805491610428836115f4565b9091555050336000908152600b60205260409020600201805461ff00191661010017905550565b6000546001600160a01b031633146104795760405162461bcd60e51b81526004016102f79061160d565b6040518060a001604052808b8b8080601f016020809104026020016040519081016040528093929190818152602001838380828437600092019190915250505090825250604080516020601f8c018190048102820181019092528a815291810191908b908b9081908401838280828437600092019190915250505090825250604080516020601f8a0181900481028201810190925288815291810191908990899081908401838280828437600092019190915250505090825250604080516020601f880181900481028201810190925286815291810191908790879081908401838280828437600092019190915250505090825250604080516020601f8601819004810282018101909252848152918101919085908590819084018382808284376000920191909152505050915250805160059081906105b990826116ba565b50602082015160018201906105ce90826116ba565b50604082015160028201906105e390826116ba565b50606082015160038201906105f890826116ba565b506080820151600482019061060d90826116ba565b50506003805461ffff191660011790555050505050505050505050565b6000546001600160a01b031633146106545760405162461bcd60e51b81526004016102f79061160d565b60018054906000610664836115f4565b919050555060006040518060800160405280600154815260200186868080601f016020809104026020016040519081016040528093929190818152602001838380828437600092019190915250505090825250604080516020601f87018190048102820181019092528581529181019190869086908190840183828082843760009201829052509385525050506020918201819052600180548252600483526040909120835181559183015192935083929082019061072390826116ba565b506040820151600282019061073890826116ba565b50606082015181600301559050507f6184463fde61a3e60869da6c5a223163f4b7548f805e17f865da2e8d3828d3378585858560405161077b94939291906117a3565b60405180910390a15050505050565b336000908152600b602052604090206002015462010000900460ff16156107e85760405162461bcd60e51b8152602060048201526012602482015271105b1c9958591e481c9959da5cdd195c995960721b60448201526064016102f7565b6040805160a081018252338082526020808301858152600084860181905260608501819052600160808601819052938152600b909252939020825181546001600160a01b0319166001600160a01b03909116178155925191928392909182019061085290826116ba565b5060408201516002918201805460608501516080909501511515620100000262ff0000199515156101000261ff00199415159490941661ffff1990921691909117929092179390931617909155600a80546001818101835560009283527fc65a7bb8d6351c1cf70c95a316cc6a92839c986682d98bc35f958f4883f9d2a890910180546001600160a01b031916331790558254909291906108f49084906117d5565b909155505060405133907fffeb7702be7dcd8fee170d954b70afb9a7c78f7f5cff232d037e7b9d8243356a9061092b9085906117ee565b60405180910390a25050565b6000546001600160a01b031633146109615760405162461bcd60e51b81526004016102f79061160d565b6001600160a01b03166000908152600b60205260409020600201805460ff1916911515919091179055565b600b60205260009081526040902080546001820180546001600160a01b0390921692916109b890611631565b80601f01602080910402602001604051908101604052809291908181526020018280546109e490611631565b8015610a315780601f10610a0657610100808354040283529160200191610a31565b820191906000526020600020905b815481529060010190602001808311610a1457829003601f168201915b5050506002909301549192505060ff808216916101008104821691620100009091041685565b6000546001600160a01b03163314610a815760405162461bcd60e51b81526004016102f79061160d565b6003805461ffff1916610100179055565b60046020526000908152604090208054600182018054919291610ab490611631565b80601f0160208091040260200160405190810160405280929190818152602001828054610ae090611631565b8015610b2d5780601f10610b0257610100808354040283529160200191610b2d565b820191906000526020600020905b815481529060010190602001808311610b1057829003601f168201915b505050505090806002018054610b4290611631565b80601f0160208091040260200160405190810160405280929190818152602001828054610b6e90611631565b8015610bbb5780601f10610b9057610100808354040283529160200191610bbb565b820191906000526020600020905b815481529060010190602001808311610b9e57829003601f168201915b5050505050908060030154905084565b600580548190610bda90611631565b80601f0160208091040260200160405190810160405280929190818152602001828054610c0690611631565b8015610c535780601f10610c2857610100808354040283529160200191610c53565b820191906000526020600020905b815481529060010190602001808311610c3657829003601f168201915b505050505090806001018054610c6890611631565b80601f0160208091040260200160405190810160405280929190818152602001828054610c9490611631565b8015610ce15780601f10610cb657610100808354040283529160200191610ce1565b820191906000526020600020905b815481529060010190602001808311610cc457829003601f168201915b505050505090806002018054610cf690611631565b80601f0160208091040260200160405190810160405280929190818152602001828054610d2290611631565b8015610d6f5780601f10610d4457610100808354040283529160200191610d6f565b820191906000526020600020905b815481529060010190602001808311610d5257829003601f168201915b505050505090806003018054610d8490611631565b80601f0160208091040260200160405190810160405280929190818152602001828054610db090611631565b8015610dfd5780601f10610dd257610100808354040283529160200191610dfd565b820191906000526020600020905b815481529060010190602001808311610de057829003601f168201915b505050505090806004018054610e1290611631565b80601f0160208091040260200160405190810160405280929190818152602001828054610e3e90611631565b8015610e8b5780601f10610e6057610100808354040283529160200191610e8b565b820191906000526020600020905b815481529060010190602001808311610e6e57829003601f168201915b5050505050905085565b600a8181548110610ea557600080fd5b6000918252602090912001546001600160a01b0316905081565b606080606080606060056000016005600101600560020160056003016005600401848054610eec90611631565b80601f0160208091040260200160405190810160405280929190818152602001828054610f1890611631565b8015610f655780601f10610f3a57610100808354040283529160200191610f65565b820191906000526020600020905b815481529060010190602001808311610f4857829003601f168201915b50505050509450838054610f7890611631565b80601f0160208091040260200160405190810160405280929190818152602001828054610fa490611631565b8015610ff15780601f10610fc657610100808354040283529160200191610ff1565b820191906000526020600020905b815481529060010190602001808311610fd457829003601f168201915b5050505050935082805461100490611631565b80601f016020809104026020016040519081016040528092919081815260200182805461103090611631565b801561107d5780601f106110525761010080835404028352916020019161107d565b820191906000526020600020905b81548152906001019060200180831161106057829003601f168201915b5050505050925081805461109090611631565b80601f01602080910402602001604051908101604052809291908181526020018280546110bc90611631565b80156111095780601f106110de57610100808354040283529160200191611109565b820191906000526020600020905b8154815290600101906020018083116110ec57829003601f168201915b5050505050915080805461111c90611631565b80601f016020809104026020016040519081016040528092919081815260200182805461114890611631565b80156111955780601f1061116a57610100808354040283529160200191611195565b820191906000526020600020905b81548152906001019060200180831161117857829003601f168201915b50505050509050945094509450945094509091929394565b6000602082840312156111bf57600080fd5b5035919050565b60008083601f8401126111d857600080fd5b50813567ffffffffffffffff8111156111f057600080fd5b60208301915083602082850101111561120857600080fd5b9250929050565b60008060008060008060008060008060a08b8d03121561122e57600080fd5b8a3567ffffffffffffffff8082111561124657600080fd5b6112528e838f016111c6565b909c509a5060208d013591508082111561126b57600080fd5b6112778e838f016111c6565b909a50985060408d013591508082111561129057600080fd5b61129c8e838f016111c6565b909850965060608d01359150808211156112b557600080fd5b6112c18e838f016111c6565b909650945060808d01359150808211156112da57600080fd5b506112e78d828e016111c6565b915080935050809150509295989b9194979a5092959850565b6000806000806040858703121561131657600080fd5b843567ffffffffffffffff8082111561132e57600080fd5b61133a888389016111c6565b9096509450602087013591508082111561135357600080fd5b50611360878288016111c6565b95989497509550505050565b634e487b7160e01b600052604160045260246000fd5b60006020828403121561139457600080fd5b813567ffffffffffffffff808211156113ac57600080fd5b818401915084601f8301126113c057600080fd5b8135818111156113d2576113d261136c565b604051601f8201601f19908116603f011681019083821181831017156113fa576113fa61136c565b8160405282815287602084870101111561141357600080fd5b826020860160208301376000928101602001929092525095945050505050565b80356001600160a01b038116811461144a57600080fd5b919050565b6000806040838503121561146257600080fd5b8235801515811461147257600080fd5b915061148060208401611433565b90509250929050565b60006020828403121561149b57600080fd5b6114a482611433565b9392505050565b6000815180845260005b818110156114d1576020818501810151868301820152016114b5565b506000602082860101526020601f19601f83011685010191505092915050565b6001600160a01b038616815260a060208201819052600090611515908301876114ab565b9415156040830152509115156060830152151560809091015292915050565b84815260806020820152600061154d60808301866114ab565b828103604084015261155f81866114ab565b91505082606083015295945050505050565b60a08152600061158460a08301886114ab565b828103602084015261159681886114ab565b905082810360408401526115aa81876114ab565b905082810360608401526115be81866114ab565b905082810360808401526115d281856114ab565b98975050505050505050565b634e487b7160e01b600052601160045260246000fd5b600060018201611606576116066115de565b5060010190565b6020808252600a908201526941646d696e204f6e6c7960b01b604082015260600190565b600181811c9082168061164557607f821691505b60208210810361166557634e487b7160e01b600052602260045260246000fd5b50919050565b601f8211156116b557600081815260208120601f850160051c810160208610156116925750805b601f850160051c820191505b818110156116b15782815560010161169e565b5050505b505050565b815167ffffffffffffffff8111156116d4576116d461136c565b6116e8816116e28454611631565b8461166b565b602080601f83116001811461171d57600084156117055750858301515b600019600386901b1c1916600185901b1785556116b1565b600085815260208120601f198616915b8281101561174c5788860151825594840194600190910190840161172d565b508582101561176a5787850151600019600388901b60f8161c191681555b5050505050600190811b01905550565b81835281816020850137506000828201602090810191909152601f909101601f19169091010190565b6040815260006117b760408301868861177a565b82810360208401526117ca81858761177a565b979650505050505050565b808201808211156117e8576117e86115de565b92915050565b6020815260006114a460208301846114ab56fea26469706673582212203a54867ffcf785f1341bb95cf0c55281d7a834bbff9d398426afc869bd9f820564736f6c63430008130033",
    "linkReferences": {}
  },
  "methodIdentifiers": {
    "addCandidate(string,string)": "26541b56",
    "admin()": "f851a440",
    "candidateCount()": "a9a981a3",
    "candidateDetails(uint256)": "6247e532",
    "electionDetails()": "6d2f6966",
    "endElection()": "59f78468",
    "getAdmin()": "6e9960c3",
    "getElectionDetails()": "ed836bc3",
    "getEnd()": "9f05a36d",
    "getStart()": "c5292c67",
    "getTotalCandidate()": "64d198a1",
    "getTotalVoter()": "0b93400e",
    "registerAsVoter(string)": "4a1abf06",
    "setElectionDetails(string,string,string,string,string)": "253e74e2",
    "verifyVoter(bool,address)": "506b8e0a",
    "vote(uint256)": "0121b93f",
    "voterCount()": "42169e48",
    "voterDetails(address)": "5938750d",
    "voters(uint256)": "da58c7d9"
  },
  "id": 0
}